:020000040800F2
:100000003808002015030008230300082503000812
:1000100027030008290300082B0300080000000044
:100020000000000000000000000000002D03000898
:100030002F0300080000000031030008595C00088D
:1000400035030008350300083503000835030008B0
:1000500035030008350300083503000835030008A0
:100060003503000835030008350300083503000890
:100070003503000835030008350300083503000880
:100080003503000835030008350300083503000870
:100090003503000835030008350300083503000860
:1000A0003503000835030008350300083503000850
:1000B000350300080D6000083D60000835030008A6
:1000C0003503000835030008350300083503000830
:1000D000350300083162000835030008B1620008EA
:1000E0003503000835030008350300083503000810
:1000F0003503000835030008350300083503000800
:10010000350300083503000879600008350300084E
:100110003503000835030008350300085D61000859
:1001200035030008350300083503000835030008CF
:1001300035030008350300083503000835030008BF
:1001400035030008350300083503000835030008AF
:10015000350300083503000835030008350300089F
:10016000350300083503000835030008350300088F
:10017000350300083503000835030008350300087F
:10018000350300083503000800F002F800F0B2F86B
:100190000AA090E8000C82448344AAF10107DA45E2
:1001A00001D100F0A7F8AFF2090EBAE80F0013F082
:1001B000010F18BFFB1A43F001031847E890000035
:1001C000089100000A444FF0000C10F8013B13F0B6
:1001D000070408BF10F8014B1D1108BF10F8015BA0
:1001E000641E05D010F8016B641E01F8016BF9D193
:1001F00013F0080F1EBF10F8014BAD1C0C1B09D1EA
:100200006D1E58BF01F801CBFAD505E014F8016B5B
:1002100001F8016B6D1EF9D59142D6D370470000ED
:100220000023002400250026103A28BF78C1FBD8FF
:10023000520728BF30C148BF0B6070476E2900F0DD
:10024000D182702900F07181662907F0AC8365299D
:1002500007F0A983672907F0A6836129AFF300801F
:1002600003681B0A28BF41F08001692900F0E4807F
:10027000642900F0E180752900F0DE806F2900F02C
:10028000C783782900F03D81E92900F06383E429E0
:1002900000F06083F52900F05D83EF2900F0C4834E
:1002A000F82900F03C810368DB0928BF41F0800198
:1002B000632900F0D282732900F0D782E32900F08D
:1002C0001786F32900F01C86002070471FB507F041
:1002D00065FB00F06BFE04000020002107F048FBE6
:1002E000401C60600020002107F02CFBE0601FBD77
:1002F00010B510BD00F02CFE1146FFF7E7FF06F029
:100300008DF800F003FF03B4FFF7F2FF03BC05F024
:10031000FEFF00000B48016841F4700101600A48CB
:100320000047FEE7FEE7FEE7FEE7FEE7FEE7FEE743
:10033000FEE7FEE7FEE7000004480549034A054BD7
:100340007047000088ED00E08901000838040020B3
:100350003808002038040020704700001CB50C4607
:10036000064B7B4469460090204600F054FA044650
:100370000020694600F062FA20461CBDD704000048
:100380000FB4044910B503AA029800F073FA10BC28
:100390005DF814FB3400002070B5044685690068E0
:1003A000C10601D5302600E02026C00707D070BD69
:1003B000D4E9012130469047206A401C20626D1E1E
:1003C000F6D570BD70B5044685690078C00707D1C1
:1003D00070BDD4E9012120209047206A401C206292
:1003E0006D1EF6D570BD70B50C460546012A05D0C8
:1003F0002878800600D5EA69002302E0012305E0A1
:100400005B1C934202D2E05C0028F9D1A869E6188F
:10041000C01AA861286A184428622846FFF7BCFF62
:1004200004E0D5E9012114F8010B9047B442F8D358
:100430002846FFF7C7FF70BD2DE9F04106460024AE
:1004400010687529314615A510D000F060F9002814
:1004500002DA404212A507E031688A0701D511A5EA
:1004600002E0490704D510A5012401E000F058F985
:1004700000210A2306F1240707E0B0FBF3F203FB97
:100480001200303078541046491C0028F5D123461C
:100490002A463046BDE8F04100F04BB900000000AC
:1004A0002D0000002B00000020000000F0B40D46DD
:1004B0000188090502D5214C7C4402E01F4C7C4494
:1004C0000E34002100F1240608E002F00F071209A3
:1004D000E75D42EA03721B097754491C52EA03079D
:1004E000F3D102780023120704D5702D06D009B18C
:1004F000022311342246F0BC00F01BB90123103452
:10050000F8E770B504460D462146106800F008F97A
:10051000024629462046BDE870400023C6E7D21DAA
:1005200022F00703D3E90023C0E70368126843F011
:10053000200303600823C3610023B7E7AE8C0000EB
:100540002DE9F05F894604464FF0000ADFF874B1E8
:10055000FB44C0F820A02046E1688847002874D0FA
:10056000252806D0D4E901219047206A401C20624A
:10057000F1E700265F462046E168884720280546C7
:1005800007DB312D05D2781910F8200C08B106438D
:10059000F1E7B00701D526F00406C4F81CA0002737
:1005A000C4F818A02A2D09D0284605F0A9FE38B3B2
:1005B00004EB8708303DC8F8185019E059F8041BBF
:1005C000204604EB87029161E1688847012F0546C8
:1005D00018D1E069002820DA26F020061DE0D8F8BE
:1005E000180000EB800005EB40003038C8F8180018
:1005F0002046E1688847054605F082FE0028EED1D6
:10060000012F0AD02E2D08D12046E16888477F1C93
:100610000546022F46F02006C4DBA069002803DA55
:10062000404246F00106A061F00701D026F0100616
:100630006C2D0BD0682D09D04C2D39D06A2D35D0BA
:10064000742D35D07A2D33D016E038E0E1682F468E
:1006500020468847B842054609D16C2F26D04FF472
:100660008060E168064320468847054604E06C2F19
:100670001AD04FF4807006430DB3A5F1410019283C
:1006800002D8203546F400664A46294620462660B0
:100690004E46FFF7D3FD80B101280BD0F61D26F0A2
:1006A000070000F1080956E74020E4E78020D8E77A
:1006B0000020D6E706F104094DE7284652E7206AF4
:1006C000BDE8F09F3E8C000010B5431C02E010F81E
:1006D000011B71B18107FAD14FF0013202C88C1AA7
:1006E0008C4314EAC211F9D0C01A0A0603D0C01E06
:1006F00010BDC01A10BD0A0401D0801E10BD090231
:10070000FCD0401E10BD70477047704770470968A5
:100710004A0501D540B27047C905FCD500B2704703
:1007200009684A0501D5C0B27047C905FCD580B239
:1007300070472DE9F0470D4699469246044600F170
:1007400024080168880604D5E06921F010012160C1
:1007500000E00120A84201DD471B00E00027A1695D
:100760007A1902EB0900081AA0612078C00602D4A9
:100770002046FFF711FE002608E0D4E901211AF80F
:1007800006009047206A401C761C20624E45F4DB30
:100790002078C0060AD52046FFF7FEFD06E0D4E922
:1007A000012130209047206A401C2062381EA7F1AA
:1007B0000107F4DC07E0D4E9012118F805009047AF
:1007C000206A401C2062281EA5F10105F3DC2046AA
:1007D000FFF7F8FD2078000602D50220BDE8F0877B
:1007E0000120FBE711680268006A530501D5087013
:1007F0000AE0D30501D5088006E0130603D5C21729
:10080000C1E9000200E008600120704701694A1C4C
:1008100002610878704700B58FB0CDE90131002141
:10082000059105497944CDE9031011466846FFF763
:1008300087FE0FB000BD0000E5FFFFFF0A6802F869
:10084000010B0A60704710B5436913B1AFF3008024
:1008500001E0FFF7C8FD012010BD127800F124016E
:100860000A7000224A700122EDE711684FF0FF3252
:10087000E9E70000074B70B50D467B44FFF7CBFF5F
:100880000446284600F040FB10B14FF0FF3070BD29
:10089000204670BD635B00002DE9FF5F15468A4668
:1008A0000446DFF8AC80F8440027D8E900103E4643
:1008B000CDE9001010E03AF816106A4602A800F0E0
:1008C00027FB411C07D02178890603D5E269391836
:1008D00091420DD80744761C2078800602D5E06945
:1008E000B84205DDAE42E6DB3AF816000028E2D158
:1008F000A069C01BA0612046FFF74EFDD8E900109B
:10090000CDE90010002017E03AF818106A4602A856
:1009100000F0FEFAB0F1FF3F81460BD000250DF14B
:10092000080B05E0D4E901211BF8050090476D1C78
:100930004D45F7D308F10100B0428046E4DB206A60
:10094000384420622046FFF73DFDBDE8FF9F0000D0
:10095000FA8800002DE9F0418046D21D22F00702FE
:100960000025D2E90002F52914A612D0002A06DAE1
:100970000023D0EB030063EB020211A608E0D8F8D5
:1009800000108B0701D50FA602E0490701D50EA67E
:1009900001251146002408F1240704E000F04EF878
:1009A00030323A55641C50EA0102F7D12B463246E8
:1009B00021464046BDE8F041FFF7BBBE0000000005
:1009C0002D0000002B0000002000000030B40021AA
:1009D00000F1240408E002F00705D208303542EAAD
:1009E0004372DB086554491C52EA0305F3D10468DD
:1009F000002310A2250708D504F020040C4304D0DE
:100A0000C46901230CA2641EC46130BCFFF791BE0F
:100A100010B5044621461068FFF782FE02462046C4
:100A2000BDE810400023D1E7D21D22F00701D1E933
:100A30000023CBE7000000003000000030B5B0F12B
:100A40000A024FEA900E71F100034EEA817EB0EB8C
:100A50000E0061EB91014FEA101E4EEA017E10EB91
:100A60000E0041EB11114FEA102E4EEA016E10EB11
:100A70000E0041EB11214FEA104E4EEA014E10EBF1
:100A80000E0041EB1141401841F100014FEAD00046
:100A900040EA41704FEAD10110EB80054FEA810432
:100AA00044EA907444EB01046D1944EB0404521BB6
:100AB000A3414FF0000348BF0A3200D530BD401CAF
:100AC00041F1000130BD70472DE9FF4F0C461E4635
:100AD0004FF0FF378BB0D2E90001DDF860800A905B
:100AE0008A46C1F30A5505B93D46002108464FF034
:100AF0000000BAF1000F00F4400005DA00EB8000BE
:100B00004FF4400101EA50004FEA9059B9F1010F4A
:100B100000DDB9460A9850EA4A000ED044F610505B
:100B2000A5F2FF3545432F14B8F1000F1ED07542D2
:100B3000291E1EDDC9F100021CE0B8F1010F4FF0C3
:100B4000000001D0302103E0F24305E02154401CB5
:100B5000B042FBDB30460022002121540B99C1F842
:100B60000880C1E900200FB0BDE8F08FBD1B6D1CEF
:100B7000DEE74A4600DA694206A800F05BFA06ABF7
:100B800093E8070003AB83E8070050460A9900F09A
:100B900007FB8DE80700A0F500501F380090039870
:100BA000002D09DD42F21F014A46084403A90390C3
:100BB000684600F066FD08E0A0F500504A461F3880
:100BC00003A90390684600F070FD8DE8070000045B
:100BD000000C03D04FF0FF30410800E01046B8F1A0
:100BE000000F03D00022009215461EE0751E05D4AA
:100BF000FFF724FF303262556D1EF9D5B34601224E
:100C0000084302D000227F1C04E02078302801D164
:100C100000227F1E002A099786D01DE0112D07DAD9
:100C2000FFF70CFF303262556D1C50EA0102F5D11E
:100C3000084302D00098C8B10EE00021681E05E00C
:100C4000235C625C63542254401E491C8142F7DBE2
:100C5000AB46A81B401E0990002004F80B000B981F
:100C6000099AC0F80880C0E9002B7CE711264FF0F4
:100C7000000859E72DE9F04F88460446D21D22F0BE
:100C8000070191B0D1E90001CDE90A0105F020FB8F
:100C900002460B98C00F01D02D2007E02068810785
:100CA00001D52B2002E0202101EAC000032A09908F
:100CB00001D0072A05DB03464146204600F07AF9B9
:100CC00009E12078800601D5E06900E00620B8F14E
:100CD000650F814606D0B8F1660F18D0B8F1670FDE
:100CE00070D131E00020B9F1110F009001DB112328
:100CF00001E009F101030AAA01A90CA8FFF7E4FE2B
:100D0000DDE90C70002609F10105834647E001206A
:100D10004B4600904FF000470AAA01A90CA8FFF724
:100D2000D3FEDDE90DB00C995D46002610B909F13E
:100D300001000D18B9EB050003D4C0F1FF3609F12D
:100D40000105A5EB09002BE0B9F1010F01DA4FF025
:100D500001090020B9F1110F0090484601DD11236F
:100D600000E003460AAA01A90CA8FFF7ADFEDDE9E1
:100D70000C704D4600268346207800070AD4AB4508
:100D800000DA5D4601A8012D04DD411911F8011CAE
:100D9000302907D04F4502DA17F1040F04DA012099
:100DA00082460FE06D1EEEE7002F02DCED1B3E4495
:100DB00003E0781CA84200DD7D1CB81B00F1010A8D
:100DC0004FF000472078000703D4AA4501DB4FF01D
:100DD000FF3A0021B7F1004F0DF143088DF84310A1
:100DE00022D002202B23002F01DA7F422D234FF047
:100DF0000A0C011EA0F1010000DC47B197FBFCF1D9
:100E00000CFB11720F46303208F8012DF1E7A8F102
:100E1000010003702188090501D5452100E0652105
:100E2000A0F1010800F8011C09980FA9A1EB08071F
:100E3000FF1D00B10120411901EBEA70A16938449E
:100E4000081A401EA0612078C00602D42046FFF791
:100E5000A3FA099828B1D4E901219047206A401CDF
:100E600020622078C00622D52046FFF795FA1EE0C2
:100E7000002E04DBB34502DD01A8805D00E03020D8
:100E8000D4E901219047206A401C2062761CAAF117
:100E900001005FEA000A0AD100F088F8C068016822
:100EA000405CD4E901219047206A401C2062281E42
:100EB000A5F10105DCDC07E0D4E9012118F8010BFC
:100EC0009047206A401C2062381EA7F10107F3DC1E
:100ED0002046FFF777FA022011B045E610B54369C6
:100EE00013B1AFF3008001E0FFF7D6FC012010BD85
:100EF000128800F1240182840022C2840122EDE7DD
:100F000011684FF0FF32E9E7007B00F08000704786
:100F100070B516460C46054600F040F8036893F895
:100F20000101012806D0FF2C0FD8185D68B10120FF
:100F30002C7070BDD3F80701324621460344284681
:100F4000BDE8704003F2071318474FF0FF3070BD43
:100F5000754600F0E1F8AE4605006946534620F0BC
:100F60000700854618B020B5FFF7E6F9BDE8204038
:100F70004FF000064FF000074FF000084FF0000B55
:100F800021F00701AC46ACE8C009ACE8C009ACE808
:100F9000C009ACE8C0098D467047000010B500F0EC
:100FA00005F8001D10BD00BFC9690000004870476A
:100FB000F80300202DE9F0411F460446032601688E
:100FC000072A01F4006004DB08B116A505E016A5A8
:100FD00003E008B115A500E015A521F01000206080
:100FE000A069C01EA0610FB1401EA0612046FFF79E
:100FF000D3F94FB1D4E9012138469047206A401C0B
:101000002062C01C206206E0206AFAE7D4E90121D0
:1010100015F8010B9047761EF8D22046FFF7D2F95B
:10102000BDE8F0814E414E006E616E00494E4600B3
:10103000696E66002DE9F047814616468AB032484F
:1010400078440DC88DE80D002F487844801C03AC0F
:101050000DC884E80D0041F69B303722014491FB16
:10106000F2F0A0F1800502FB10141B3C02D5644293
:10107000012000E00020DFF890A080460027FA441D
:10108000AAF1BA0A0DE0E00709D03246684607EB3C
:1010900047010AEB810100F008FB8DE807006410AE
:1010A0007F1C002CEFD1184F7F44A83F18E0E807C1
:1010B00014D007EB04100DF1180A90E80E008AE82E
:1010C0000E00C068F04201D198190890324606A976
:1010D00003A800F0EAFA03AB83E807006D10641C74
:1010E000002DE4D132466946B8F1000F03A802D0C2
:1010F00000F0C7FA01E000F0D8FAC9E90001C9F828
:1011000008200AB0BDE8F087E48100000446AFF390
:1011100000802046FFF7F7F800487047D80300200A
:101120004FF0013C50F8042B51F8043B9A4221D176
:10113000A2EB0C03934313EACC1317D150F8042B02
:1011400051F8043B9A4215D1A2EB0C03934313EAE6
:10115000CC130BD150F8042B51F8043B9A4209D11F
:10116000A2EB0C03934313EACC13DBD04FF0000047
:10117000704700BFD01A01BAB1FA81F101F018012D
:1011800022FA01F0CB40C1F12001DBB2C0B2C01A9B
:101190002CFA01F3D11A914311EAC311E6D1704739
:1011A0005FEA400C08BF91F0000F4FEA8C234FEA32
:1011B000C12243EA51514FEA1C5018BF00F5F040DC
:1011C0004FEA300018BF41F000415FEA6C5C00F06C
:1011D0002980BCF1FF3F08BF40F080407047130CEE
:1011E00006BF12044FF0100C4FF0000C130E04BF9A
:1011F00012020CF1080C130F04BF12010CF1040CC5
:10120000930F04BF92000CF1020CD30F04BF5200E5
:101210000CF1010C11464FF00002A0F11F00A0EBF1
:101220000C00704711F0004F08BF704731F00041CB
:101230003FF4D5AF0B0C06BF09044FF0100C4FF074
:10124000000C0B0E04BF09020CF1080C0B0F04BFBD
:1012500009010CF1040C8B0F04BF89000CF1020C86
:10126000CB0F04BF49000CF1010CCCF12003A0EB23
:101270000C0022FA03F302FA0CF241EA030100F136
:101280000100704720F07F4C80EA030023F07F4785
:10129000ACEB070303F57C5300F0004003F1FF03C0
:1012A0002DE980494FEA154B09B44FEA144325EA6A
:1012B0000B4E24EA03480FF2042606EB13274908D5
:1012C0003E785FEA320203FB0667C7F5000707FBBB
:1012D00006F64FEA54374FEAD64606F1020607FBF8
:1012E000066CCCF1005C4FEA1C472CEA074C07FB6C
:1012F00006F40CFB06F504EB15464FEA961634BFD0
:1013000000204FF000404FEAD13706FB07FC4FEAC0
:101310001C4C0CFB0BF7D21B03FB0CF761EB07011A
:101320000CFB0EF7B0EB074072EB17420CFB08F713
:1013300034BFA2EB0742B2EB074261EB17414FEA21
:101340000C444FEA910706FB07FC4FEA1C4C0CFBD0
:101350000BF7B0EBC74072EB573203FB0CF734BF0F
:10136000A2EBC742B2EBC74261EB57310CFB0EF761
:10137000B0EBC70072EB57720CFB08F734BFA2EB5F
:10138000C702B2EBC70261EB5771039F4FEA81615D
:1013900041EA921104EBCC044FEAD1374FEA826262
:1013A00006FB07FC42EA90124FEA80604FEA1C4CB1
:1013B0000CFB0BF7D21B03FB0CF761EB07010CFBDB
:1013C0000EF7B0EB074072EB17420CFB08F734BF87
:1013D000A2EB0742B2EB074261EB17414FEA8C5593
:1013E0004FEA910704EB9C2406FB07FC4FEA1C4CD8
:1013F0000CFB0BF7B0EBC74072EB573203FB0CF75B
:1014000034BFA2EBC742B2EBC74261EB57310CFBD2
:101410000EF7B0EBC70072EB57720CFB08F734BF46
:10142000A2EBC702B2EBC70261EB577115EB4C257B
:101430004FEA816141EA92114FEA82624FEAD13765
:1014400042EA901206FB07FC44F100044FEA806078
:101450004FEA1C4C0CFB0BF7D21B03FB0CF761EBA8
:1014600007010CFB0EF7B0EB074072EB17420CFBC9
:1014700008F734BFA2EB0742B2EB074261EB17411A
:1014800015EB1C154FEA813141EA92414FEA823255
:1014900042EA90424FEA80304FEA0C7644F1000471
:1014A00048EA03434EEA0B484FF0000EB2EB080C3B
:1014B00071EB030724BF624639464EEB0E0E4FF028
:1014C000000B0018524149414BEB0B0BB2EB080CDF
:1014D00071EB03077BF1000B24BF624639464EEBEC
:1014E0000E0E4FF0000B0018524149414BEB0B0B15
:1014F000B2EB080C71EB03077BF1000B24BF6246D3
:1015000039464EEB0E0E51EA020718BF46F00106AF
:1015100016EB0E7655F1000254F1000103D5BDE83B
:101520008901BDE80088BDE88901B619BDE8004819
:10153000524141EB0101A3F10103704780807F7E9E
:101540007D7C7B7A79787776767574737271717039
:101550006F6E6E6D6C6C6B6A6A69686867666665EB
:101560006464636362616160605F5F5E5E5D5D5C79
:101570005C5B5B5A5A5959585857575656555555EA
:101580005454535352525251515050504F4F4F4E4A
:101590004E4D4D4D4C4C4C4B4B4B4A4A4A49494998
:1015A00048484847474747464646454545444444DA
:1015B000444343434342424242414141002B26D4EB
:1015C000770021D01CB54FEA370703B44FF0100065
:1015D0004FF010014FF000000FBC0BF1010BBDE804
:1015E0001040BBF1010F08BF5FEA170722BF12F1DD
:1015F000010211F101014FF0004143F1000300F03D
:10160000004043EA00007047F9D35708DAE746EA9A
:10161000064613F1400F4FEA16461FDD13F1200F67
:10162000DFBF16430A46002120335B42C8D0C3F116
:10163000200746EA064602FA07F74FEA164646EA48
:101640000706C3F1200722FA03F201FA07F721FA8D
:1016500003F14FF0000342EA0702B1E746EA02064F
:1016600046EA06464FEA164646EA0106BCBF46EA87
:101670000646360C4FF000034FF000024FF0000119
:101680009EE72DE9C048934630B491E8380007C87A
:1016900031EA400C48BF34EA430C03D5FFF7F2FDB2
:1016A000FFF78CFFF0BCBDE800882DE9C0489346E9
:1016B00030B491E8380007C810F0804F08BF13F02D
:1016C000804F03D100F005F8FFF778FFF0BCBDE8CC
:1016D000008820F07F4780EA030023F07F4C07EB6F
:1016E0000C03A3F57C5300F00040A3F1FE0392F03D
:1016F000000F00F0B38095F0000F00F077802DE927
:1017000001494FEA11404FEA144621EA004800FB24
:1017100006FC24EA064708FB06F607FB08F800FB70
:1017200007F718EB06484CEB164C4FEA124B18EB38
:1017300007484FEA15464CEB174022EA0B4E0BFBCD
:1017400006FC25EA06470EFB06F607FB0EFE0BFB22
:1017500007F71EEB064E4CEB164C4FF000061EEB47
:10176000074E4CEB174B18EB0B0840F1000018EB41
:101770000E0B58EB000840F100008F1A4FF00001EB
:101780003CBFC943661B14BFB5EB040C00213CBF32
:10179000C943F61B4FEA17444EEA8E0E27EA04456A
:1017A0004FEA1C4704FB07622CEA074C05FB07F7CE
:1017B0000CFB05F604FB0CFC16EB074642EB17424C
:1017C00016EB0C4642EB1C421BEB060658EB0202E2
:1017D000414146EA9E0601D5BDE80189B61952414C
:1017E00041EB0101A3F10103BDE801894FEA144572
:1017F0004FEA114724EA054621EA074C05FB07F4A6
:1018000006FB07F70CFB06F105FB0CFC11EB07418F
:1018100044EB17444FEA124711EB0C4144EB1C44D4
:1018200022EA074C05FB07F206FB07F70CFB06F65E
:1018300005FB0CFC16EB074642EB174216EB0C4679
:1018400042EB1C456A1854F1000148BF7047B619B5
:10185000524141EB0101A3F10103704795F0000FE4
:1018600037D04FEA11424FEA144721EA024624EAF0
:10187000074C02FB07F106FB07F70CFB06F402FB23
:101880000CFC14EB074441EB17414FEA154714EBEE
:101890000C4441EB1C4125EA074C02FB07F506FB13
:1018A00007F70CFB06F602FB0CFC16EB074645EBB4
:1018B000174516EB0C4645EB1C42121951F100017D
:1018C00048BF7047B619524141EB0101A3F1010332
:1018D00070474FEA14454FEA114724EA054621EACA
:1018E000074C05FB07F106FB07F70CFB06F24FF070
:1018F000000605FB0CFC12EB074241EB174112EB13
:101900000C4251EB1C4148BF7047921841EB01015A
:10191000A3F10103704730B5CC1000F1200353F858
:1019200024304C07E50E0F24AC40A343CD1000F14A
:10193000200444F82530CC1000F1200353F8243063
:101940004C07E40E02FA04F42343CD1000F1200406
:1019500044F8253030BD2DE9F0470C46DDE9086735
:10196000002100258C4600BF60E04FF0010808FA16
:1019700001F504EA050CAC4557D1D0F800804FEAD8
:10198000410A4FF0030909FA0AF928EA0908C0F8E0
:101990000080D0F800804FEA410902FA09F948EACC
:1019A0000908C0F80080012A01D0022A27D1D0F806
:1019B00008804FEA410A4FF0030909FA0AF928EAB8
:1019C0000908C0F80880D0F808804FEA410906FAF3
:1019D00009F948EA0908C0F80880D0F804904FF0E7
:1019E000010808FA01F829EA0809C0F80490D0F8BB
:1019F000048003FA01F948EA0908C0F80480D0F825
:101A00000C804FEA410A4FF0030909FA0AF928EA63
:101A10000908C0F80C80D0F80C804FEA410907FA99
:101A200009F948EA0908C0F80C80491C10299CD320
:101A3000BDE8F0877CB50A2401251D48006840F008
:101A400004001B4908600846006840F02000086058
:101A5000012000210B460A46CDE900100146154839
:101A6000FFF779FF0120032100230246CDE9001092
:101A700008211148FFF76FFF4FF416512A2004F098
:101A800031FE0CE001200D4908600A2004F076FCCC
:101A90000BA004F07FFD00200B49C1F88C02200050
:101AA000A4F10101CCB2EDD104B9012528467CBDD9
:101AB0003038024000080240001402408C8242424A
:101AC00041540D0A00000000008042421CB510483D
:101AD000006840F001000E4908600846006840F0C8
:101AE00010000860012000210B460A46CDE90010D5
:101AF0001C210848FFF72FFF022000210B460A4651
:101B0000CDE9001001210448FFF725FF1CBD0000AE
:101B100030380240001002400000024070B5044618
:101B2000002617480588408845431548808846F6B2
:101B30000401884216D112488079012812D1002070
:101B40000F4988712A2048812B208881002108466E
:101B500003F078FE01200A4988712B2048812A2051
:101B6000888103E00021084603F06CFE03F0D0FFFB
:101B7000002602E003480480761CAE42FAD370BD12
:101B8000340200208000006C10B50446002C52D1B5
:101B900058498871F02008804FF4A07048800846AA
:101BA000808849F2413188420BD05248808846F6FD
:101BB0000401884205D04F48808845F210318842A0
:101BC0001AD12C204B4908812A2048812B2088815A
:101BD0000846808846F60401884205D0454880883A
:101BE00045F21031884206D14FF4A0704149088077
:101BF0004FF4F070488079E03E48808845F21051FB
:101C0000884210D14FF430503A4908814FF428509F
:101C100048814FF42C5088814FF4F07008804FF4C5
:101C20004870488062E022203249088120204881A3
:101C3000212088815AE001202E4988714FF4A0703C
:101C40000880F02048800846808849F24131884267
:101C500005D02848808845F21031884207D12C20D1
:101C6000244908812A2048812B2088812BE02148A3
:101C7000808846F60401884207D12C201D4908813E
:101C80002B2048812A2088811DE01A48808845F24F
:101C90001051884210D14FF43050164908814FF44A
:101CA000285048814FF42C5088814FF448700880A8
:101CB0004FF4F070488006E022200E490881212070
:101CC0004881202088810B48808846F6040188429C
:101CD00005D00848808845F21031884206D14FF47B
:101CE000F070044908804FF4A0704880002003F091
:101CF00053FC10BD3402002070B504460D46164654
:101D00004348808849F24131884205D04048808864
:101D100045F21031884214D13D49488903F0ECFE68
:101D2000201203F0DDFEE0B203F0DAFE38498889C4
:101D300003F0E2FE281203F0D3FEE8B203F0D0FE77
:101D40005DE03348808845F21051884220D1304907
:101D5000488903F0D1FE201203F0C2FE2C494989C4
:101D6000491C88B203F0C8FEE0B203F0B9FE28496E
:101D7000888903F0C1FE281203F0B2FE2449898944
:101D8000491C88B203F0B8FEE8B203F0A9FE36E0C1
:101D90001F48808846F6040188421DD11C4880797E
:101DA000012804D11A480088401E001B84B218493B
:101DB000488903F0A1FE201203F092FEE0B203F086
:101DC0008FFE1349888903F097FE281203F088FEDE
:101DD000E8B203F085FE12E00D488079012804D1B5
:101DE0000B480088401E001B84B2094948892146DF
:101DF00003F098FE06498889294603F093FE0448BB
:101E00000089044908804FF0D840A0F8806070BD78
:101E1000340200207E00006C0EB500200290FE48C7
:101E2000006840F07800FC4908600846006840F00F
:101E300002000860F8480830006840F00100F649E8
:101E4000083108600120022100230246CDE900107C
:101E5000C103F248FFF77FFD012003210023022286
:101E6000CDE900104CF23371ED48FFF774FD01200D
:101E7000032100230222CDE900104FF68071E948CA
:101E8000FFF769FD0120032100230222CDE90010A4
:101E90000103E548FFF75FFD012003210023022233
:101EA000CDE900100103E148FFF755FD0C220021A8
:101EB000DB48FFF730FD0C220121D948FFF72BFD4D
:101EC0000C220421D648FFF726FD0C220521D44818
:101ED000FFF721FD0C220821D148FFF71CFD0C2241
:101EE0000921CF48FFF717FD0C220A21CC48FFF744
:101EF00012FD0C220E21CA48FFF70DFD0C220F2106
:101F0000C748FFF708FD0C220721C648FFF703FD6D
:101F10000C220821C348FFF7FEFC0C220921C1480E
:101F2000FFF7F9FC0C220A21BE48FFF7F4FC0C2253
:101F30000B21BC48FFF7EFFC0C221146B948FFF714
:101F4000EAFC0C220D21B748FFF7E5FC0C220E211C
:101F5000B448FFF7E0FC0C220F21B248FFF7DBFC8E
:101F60000C221146B048FFF7D6FC0C221146AF48B0
:101F7000FFF7D1FC00204FF020418861C861AC49D7
:101F800008604FF02040806940F480504FF02041BD
:101F900088610846806940F480408861084680690D
:101FA00040F0100088610846C069C8610846C069F1
:101FB00040F00F00C8610846C06940F47050C86125
:101FC0009B480068C1F81C010846D0F81C0140F08D
:101FD0000900C1F81C010846D0F81C0140F400605B
:101FE000C1F81C010846806940F001008861322078
:101FF00004F0C4F90121002003F094FD322004F024
:10200000BDF9002003F0BCFA8A4988800846808820
:10201000FF280ADB084680884FF6FF71884204D00B
:1020200084488088B0F5134F7ED1D32003F064FD3F
:1020300003F09CFA7F49888003F098FA7D498880F4
:1020400003F094FA7B498880084680884FF6FF7138
:1020500001EA00207749888003F088FA7549898869
:102060000843744988800846808849F24131884293
:1020700078D0BF2003F040FD03F078FA6D498880E6
:1020800003F074FA6B49888003F070FA694988801C
:1020900003F06CFA67498880084680884FF6FF7124
:1020A00001EA00206349888003F060FA6149898869
:1020B0000843604988800846808846F604018842C3
:1020C00050D0D42003F018FD03F050FA594988800D
:1020D00003F04CFA5749888003F048FA5549888044
:1020E000084680884FF6FF7101EA00205149888038
:1020F00003F03CFA4F49898808434E4988800846D6
:10210000808845F2103188422CD04FF45A4003F0B9
:10211000F3FC03F02BFA474988804FF45B4003F04F
:10212000EBFC03F023FA00E01CE0424988800846FB
:1021300080884FF6FF7101EA00203E4988804FF405
:102140005C4003F0D9FC03F011FA3A49898808434E
:102150003849888008468088B0F5004F02D145F2A2
:10216000105088803348808849F2413188420BD032
:102170003048808845F21031884205D02D4880884B
:1021800045F2105188421DD12948006820F00F0007
:102190004FF02041C1F81C010846D0F81C0120F482
:1021A0007060C1F81C010846D0F81C0140F0030023
:1021B000C1F81C010846D0F81C0140F40070C1F8B9
:1021C0001C0128E01B48808846F60401884205D09F
:1021D000184880884CF2055188421CD11448006888
:1021E00020F00F004FF02041C1F81C010846D0F844
:1021F0001C0120F47060C1F81C010846D0F81C01D5
:1022000040F00A00C1F81C010846D0F81C0140F457
:102210004060C1F81C010FE0303802400004024069
:10222000000C02400010024000140240001802405E
:102230001C0100A034020020FE488188FEA0FEF7A9
:102240009FF8FC48808849F2413188427ED1CF20F6
:1022500003F052FC002003F043FC0298401C029063
:10226000C12003F03DFC302003F03AFCED2003F0E8
:1022700043FC642003F034FC032003F031FC122003
:1022800003F02EFC812003F02BFCE82003F034FC4B
:10229000852003F025FC102003F022FC7A2003F0B7
:1022A0001FFCCB2003F028FC392003F019FC2C2064
:1022B00003F016FC002003F013FC342003F010FCA4
:1022C000022003F00DFCF72003F016FC202003F0A1
:1022D00007FCEA2003F010FC002003F001FC0020C2
:1022E00003F0FEFBC02003F007FC1B2003F0F8FB0B
:1022F000C12003F001FC012003F0F2FBC52003F034
:10230000FBFB302003F0ECFB302003F0E9FBC7209F
:1023100003F0F2FBB72003F0E3FB362003F0ECFB05
:10232000482003F0DDFB3A2003F0E6FB552003F0E4
:10233000D7FBB12003F0E0FB002003F0D1FB1A2013
:1023400003F0CEFBB62003F0D7FB00E09AE00A20B2
:1023500003F0C6FBA22003F0C3FBF22003F0CCFB8A
:10236000002003F0BDFB262003F0C6FB012003F094
:10237000B7FBE02003F0C0FB0F2003F0B1FB2A20E5
:1023800003F0AEFB282003F0ABFB082003F0A8FB12
:102390000E2003F0A5FB082003F0A2FB542003F05D
:1023A0009FFBA92003F09CFB432003F099FB0A202C
:1023B00003F096FB0F2003F093FB002003F090FB4B
:1023C000002003F08DFB002003F08AFB002003F0C7
:1023D00087FBE12003F090FB002003F081FB152038
:1023E00003F07EFB172003F07BFB072003F078FB54
:1023F000112003F075FB062003F072FB2B2003F085
:102400006FFB562003F06CFB3C2003F069FB0520BA
:1024100003F066FB102003F063FB0F2003F060FB6A
:102420003F2003F05DFB3F2003F05AFB0F2003F039
:1024300057FB2B2003F060FB002003F051FB002032
:1024400003F04EFB012003F04BFB3F2003F048FB61
:102450002A2003F051FB002003F042FB002003F090
:102460003FFB002003F03CFBEF2003F039FB112081
:1024700003F042FB782003F081FF292003F03CFBAE
:1024800003F064B86B48808846F6040188427CD12A
:10249000112003F031FB142003F070FFD02003F073
:1024A0002BFB072003F01CFB422003F019FB1D202F
:1024B00003F016FBD12003F01FFB002003F010FBFC
:1024C0001A2003F00DFB092003F00AFBD22003F0D1
:1024D00013FB012003F004FB222003F001FBC020CA
:1024E00003F00AFB102003F0FBFA3B2003F0F8FA9C
:1024F000002003F0F5FA022003F0F2FA112003F0B5
:10250000EFFAC52003F0F8FA032003F0E9FAC82037
:1025100003F0F2FA002003F0E3FA252003F0E0FADA
:10252000212003F0DDFA052003F0DAFA002003F0A1
:10253000D7FA0A2003F0D4FA652003F0D1FA252057
:1025400003F0CEFA772003F0CBFA502003F0C8FA5C
:102550000F2003F0C5FA002003F0C2FAF82003F0C0
:10256000CBFA012003F0BCFAFE2003F0C5FA0020EC
:1025700003F0B6FA022003F0B3FA202003F0BCFA0D
:10258000362003F0B9FA082000E02CE003F0A8FAA6
:102590003A2003F0B1FA552003F0A2FA2B2003F001
:1025A000ABFA002003F09CFA002003F099FA012016
:1025B00003F096FA3F2003F093FA2A2003F09CFAE6
:1025C000002003F08DFA002003F08AFA012003F0C6
:1025D00087FADF2003F084FA782003F0CFFE292069
:1025E00003F08AFA4CE71348808845F2103188429C
:1025F00040F08487ED2003F07FFA012003F070FAA9
:10260000FE2003F06DFAEE2003F076FADE2003F0F0
:1026100067FA212003F064FAF12003F06DFA01203B
:1026200003F05EFADF2003F067FA102003F058FA97
:10263000C42009E034020020204C43442049443A9D
:1026400025780D0A0000000003F056FA8F2003F0F1
:1026500047FAC62003F050FA002003F041FAE220C6
:1026600003F03EFAE22003F03BFAE22003F038FAEE
:10267000BF2003F041FAAA2003F032FAB02003F0A1
:102680003BFA0D2003F02CFA002003F029FA0D206C
:1026900003F026FA002003F023FA112003F020FAB9
:1026A000002003F01DFA192003F01AFA002003F0AD
:1026B00017FA212003F014FA002003F011FA2D205C
:1026C00003F00EFA002003F00BFA3D2003F008FAA5
:1026D000002003F005FA5D2003F002FA002003F069
:1026E000FFF95D2003F0FCF9002003F0F9F9B120B7
:1026F00003F002FA802003F0F3F9002003F0F0F970
:102700008B2003F0EDF9002003F0EAF9962003F0A6
:10271000E7F9002003F0E4F9B22003F0EDF900201E
:1027200003F0DEF9002003F0DBF9022003F0D8F912
:10273000002003F0D5F9032003F0D2F9002003F0C4
:10274000CFF9B32003F0D8F9002003F0C9F9002035
:1027500003F0C6F9002003F0C3F9002003F0C0F92C
:10276000002003F0BDF9002003F0BAF9002003F0C7
:10277000B7F9002003F0B4F9002003F0B1F900200C
:1027800003F0AEF9002003F0ABF9002003F0A8F944
:10279000002003F0A5F9002003F0A2F9002003F0C7
:1027A0009FF9002003F09CF9002003F099F9002024
:1027B00003F096F9002003F093F9002003F090F95C
:1027C000002003F08DF9002003F08AF9002003F0C7
:1027D00087F9002003F084F9B42003F08DF98B20F1
:1027E00003F07EF9002003F07BF9962003F078F9DE
:1027F000002003F075F9A12003F072F9002003F026
:102800006FF9B52003F078F9022003F069F9002090
:1028100003F066F9032003F063F9002003F060F988
:10282000042003F05DF9002003F05AF9B62003F00C
:1028300063F9002003F054F9002003F051F9B720A8
:1028400003F05AF9002003F04BF9002003F048F997
:102850003F2003F045F9002003F042F95E2003F029
:102860003FF9002003F03CF9642003F039F900201F
:1028700003F036F98C2003F033F9002003F030F92F
:10288000AC2003F02DF9002003F02AF9DC2003F03E
:1028900027F9002003F024F9702003F021F900202B
:1028A00003F01EF9902003F01BF9002003F018F943
:1028B000EB2003F015F9002003F012F9DC2003F0FF
:1028C0000FF9002003F00CF9B82003F015F90020EF
:1028D00003F006F9002003F003F9002003F000F9EB
:1028E000002003F0FDF8002003F0FAF8002003F0C8
:1028F000F7F8002003F0F4F8002003F0F1F8BA2014
:1029000003F0FAF8242003F0EBF8002003F0E8F8D5
:10291000002003F0E5F8002003F0E2F8C12003F006
:10292000EBF8202003F0DCF8002003F0D9F8542065
:1029300003F0D6F8002003F0D3F8FF2003F0D0F81E
:10294000002003F0CDF8C22003F0D6F80A2003F0EF
:10295000C7F8002003F0C4F8042003F0C1F80020F9
:1029600003F0BEF8C32003F0C7F83C2003F0B8F82A
:10297000002003F0B5F83A2003F0B2F8002003F08D
:10298000AFF8392003F0ACF8002003F0A9F83720A5
:1029900003F0A6F8002003F0A3F83C2003F0A0F811
:1029A000002003F09DF8362003F09AF8002003F091
:1029B00097F8322003F094F8002003F091F82F20CC
:1029C00003F08EF8002003F08BF82C2003F088F839
:1029D000002003F085F8292003F082F8002003F09E
:1029E0007FF8262003F07CF8002003F079F82420FB
:1029F00003F076F8002003F073F8242003F070F859
:102A0000002003F06DF8232003F06AF8002003F0A3
:102A100067F83C2003F064F8002003F061F83620EA
:102A200003F05EF8002003F05BF8322003F058F862
:102A3000002003F055F82F2003F052F8002003F097
:102A40004FF82C2003F04CF8002003F049F829201F
:102A500003F046F8002003F043F8262003F040F886
:102A6000002003F03DF8242003F03AF8002003F0A2
:102A700037F8242003F034F8002003F031F8232045
:102A800003F02EF8002003F02BF8C42003F034F8F4
:102A9000622003F025F8002003F022F8052003F05F
:102AA0001FF8002003F01CF8842003F019F8002020
:102AB00003F016F8F02003F013F8002003F010F8EC
:102AC000182003F00DF8002003F00AF8A42003F00A
:102AD00007F8002003F004F8182003F001F80020A4
:102AE00002F0FEFF502002F0FBFF002002F0F8FF92
:102AF0000C2002F0F5FF002002F0F2FF172002F098
:102B0000EFFF002002F0ECFF952002F0E9FF00202B
:102B100002F0E6FFF32002F0E3FF002002F0E0FF06
:102B2000E62002F0DDFF002002F0DAFFC52002F00F
:102B3000E3FF322002F0D4FF002002F0D1FF442056
:102B400002F0CEFF002002F0CBFF652002F0C8FFAC
:102B5000002002F0C5FF762002F0C2FF002002F044
:102B6000BFFF882002F0BCFF002002F0B9FFC620A2
:102B700002F0C2FF202002F0B3FF002002F0B0FFFD
:102B8000172002F0ADFF002002F0AAFF012002F0A2
:102B9000A7FF002002F0A4FFC72002F0ADFF002035
:102BA00002F09EFF002002F09BFF002002F098FF41
:102BB000002002F095FFC82002F09EFF002002F0E6
:102BC0008FFF002002F08CFF002002F089FF002020
:102BD00002F086FFC92002F08FFF002002F080FF84
:102BE000002002F07DFF002002F07AFF002002F0BA
:102BF00077FF002002F074FF002002F071FF002038
:102C000002F06EFF002002F06BFF002002F068FF70
:102C1000002002F065FF002002F062FF002002F0B9
:102C20005FFF002002F05CFF002002F059FF00204F
:102C300002F056FF002002F053FFE02002F05CFF9C
:102C4000162002F04DFF002002F04AFF1C2002F087
:102C500047FF002002F044FF212002F041FF002046
:102C600002F03EFF362002F03BFF002002F038FF6A
:102C7000462002F035FF002002F032FF522002F021
:102C80002FFF002002F02CFF642002F029FF00201B
:102C900002F026FF7A2002F023FF002002F020FF3E
:102CA0008B2002F01DFF002002F01AFF992002F095
:102CB00017FF002002F014FFA82002F011FF0020EF
:102CC00002F00EFFB92002F00BFF002002F008FF17
:102CD000C42002F005FF002002F002FFCA2002F02B
:102CE000FFFE002002F0FCFED22002F0F9FE0020E0
:102CF00002F0F6FED92002F0F3FE002002F0F0FE12
:102D0000E02002F0EDFE002002F0EAFEF32002F0E7
:102D1000E7FE002002F0E4FEE12002F0EDFE1620C6
:102D200002F0DEFE002002F0DBFE1C2002F0D8FEE6
:102D3000002002F0D5FE222002F0D2FE002002F098
:102D4000CFFE362002F0CCFE002002F0C9FE452066
:102D500002F0C6FE002002F0C3FE522002F0C0FEC8
:102D6000002002F0BDFE642002F0BAFE002002F056
:102D7000B7FE7A2002F0B4FE002002F0B1FE8B20F4
:102D800002F0AEFE002002F0ABFE992002F0A8FE99
:102D9000002002F0A5FEA82002F0A2FE002002F012
:102DA0009FFEB92002F09CFE002002F099FEC42094
:102DB00002F096FE002002F093FECA2002F090FE80
:102DC000002002F08DFED22002F08AFE002002F0E8
:102DD00087FED82002F084FE002002F081FEE02071
:102DE00002F07EFE002002F07BFEF32002F078FE6F
:102DF000002002F075FEE22002F07EFE052002F0C7
:102E00006FFE002002F06CFE0B2002F069FE002035
:102E100002F066FE1B2002F063FE002002F060FE5E
:102E2000342002F05DFE002002F05AFE442002F041
:102E300057FE002002F054FE4F2002F051FE002009
:102E400002F04EFE612002F04BFE002002F048FE30
:102E5000792002F045FE002002F042FE882002F0B8
:102E60003FFE002002F03CFE972002F039FE0020D9
:102E700002F036FEA62002F033FE002002F030FE03
:102E8000B72002F02DFE002002F02AFEC22002F040
:102E900027FE002002F024FEC72002F021FE0020C1
:102EA00002F01EFED12002F01BFE002002F018FEF0
:102EB000D62002F015FE002002F012FEDD2002F006
:102EC0000FFE002002F00CFEF32002F009FE0020AD
:102ED00002F006FEE32002F00FFE052002F000FEE5
:102EE000002002F0FDFD0A2002F0FAFD002002F0B1
:102EF000F7FD1C2002F0F4FD002002F0F1FD33206C
:102F000002F0EEFD002002F0EBFD442002F0E8FDAF
:102F1000002002F0E5FD502002F0E2FD002002F06A
:102F2000DFFD622002F0DCFD002002F0D9FD7820F8
:102F300002F0D6FD002002F0D3FD882002F0D0FD83
:102F4000002002F0CDFD972002F0CAFD002002F023
:102F5000C7FDA62002F0C4FD002002F0C1FDB7208D
:102F600002F0BEFD002002F0BBFDC22002F0B8FD61
:102F7000002002F0B5FDC72002F0B2FD002002F0F3
:102F8000AFFDD12002F0ACFD002002F0A9FDD5205C
:102F900002F0A6FD002002F0A3FDDD2002F0A0FD5E
:102FA000002002F09DFDF32002F09AFD002002F0C7
:102FB00097FDE42002F0A0FD012002F091FD002029
:102FC00002F08EFD012002F08BFD002002F088FD52
:102FD000022002F085FD002002F082FD2A2002F08E
:102FE0007FFD002002F07CFD3C2002F079FD0020F6
:102FF00002F076FD4B2002F073FD002002F070FD20
:103000005D2002F06DFD002002F06AFD742002F0E8
:1030100067FD002002F064FD842002F061FD0020C5
:1030200002F05EFD932002F05BFD002002F058FDEF
:10303000A22002F055FD002002F052FDB32002F064
:103040004FFD002002F04CFDBE2002F049FD0020A3
:1030500002F046FDC42002F043FD002002F040FDD6
:10306000CD2002F03DFD002002F03AFDD32002F019
:1030700037FD002002F034FDDD2002F031FD00209C
:1030800002F02EFDF32002F02BFD002002F028FDBF
:10309000E52002F031FD002002F022FD002002F0C8
:1030A0001FFD002002F01CFD002002F019FD02208F
:1030B00002F016FD002002F013FD292002F010FDA1
:1030C000002002F00DFD3C2002F00AFD002002F07D
:1030D00007FD4B2002F004FD002002F001FD5D2001
:1030E00002F0FEFC002002F0FBFC742002F0F8FC71
:1030F000002002F0F5FC842002F0F2FC002002F037
:10310000EFFC932002F0ECFC002002F0E9FCA2208E
:1031100002F0E6FC002002F0E3FCB32002F0E0FC49
:10312000002002F0DDFCBE2002F0DAFC002002F0FC
:10313000D7FCC42002F0D4FC002002F0D1FCCD204A
:1031400002F0CEFC002002F0CBFCD32002F0C8FC41
:10315000002002F0C5FCDC2002F0C2FC002002F0DE
:10316000BFFCF32002F0BCFC002002F0B9FCE6201A
:1031700002F0C2FC112002F0B3FC002002F0B0FC0F
:10318000342002F0ADFC002002F0AAFC562002F030
:10319000A7FC002002F0A4FC762002F0A1FC002095
:1031A00002F09EFC772002F09BFC002002F098FCCD
:1031B000662002F095FC002002F092FC882002F0CC
:1031C0008FFC002002F08CFC992002F089FC00208A
:1031D00002F086FCBB2002F083FC002002F080FCA1
:1031E000992002F07DFC002002F07AFC662002F0BB
:1031F00077FC002002F074FC552002F071FC0020E6
:1032000002F06EFC552002F06BFC002002F068FC1E
:10321000452002F065FC002002F062FC432002F031
:103220005FFC002002F05CFC442002F059FC00200E
:1032300002F056FCE72002F05FFC322002F050FC66
:10324000002002F04DFC552002F04AFC002002F064
:1032500047FC762002F044FC002002F041FC66208E
:1032600002F03EFC002002F03BFC672002F038FC3C
:10327000002002F035FC672002F032FC002002F052
:103280002FFC872002F02CFC002002F029FC992062
:1032900002F026FC002002F023FCBB2002F020FC00
:1032A000002002F01DFC992002F01AFC002002F020
:1032B00017FC772002F014FC002002F011FC4420DF
:1032C00002F00EFC002002F00BFC562002F008FC7D
:1032D000002002F005FC232002F002FC002002F096
:1032E000FFFB332002F0FCFB002002F0F9FB45203D
:1032F00002F0F6FB002002F0F3FBE82002F0FCFBFA
:10330000002002F0EDFB002002F0EAFB992002F021
:10331000E7FB002002F0E4FB872002F0E1FB002045
:1033200002F0DEFB882002F0DBFB002002F0D8FB7D
:10333000772002F0D5FB002002F0D2FB662002F0DD
:10334000CFFB002002F0CCFB882002F0C9FB00205C
:1033500002F0C6FBAA2002F0C3FB002002F0C0FB73
:10336000BB2002F0BDFB002002F0BAFB992002F066
:10337000B7FB002002F0B4FB662002F0B1FB002096
:1033800002F0AEFB552002F0ABFB002002F0A8FBE0
:10339000552002F0A5FB002002F0A2FB442002F021
:1033A0009FFB002002F09CFB442002F099FB0020D0
:1033B00002F096FB552002F093FB002002F090FBF8
:1033C000E92002F099FBAA2002F08AFB002002F01B
:1033D00087FB002002F084FB002002F081FB00202C
:1033E00002F08AFBAA2002F07BFBCF2002F084FBD4
:1033F000002002F075FB002002F072FB002002F0BA
:103400006FFB002002F06CFB002002F069FB002043
:1034100002F066FB002002F063FB002002F060FB7C
:10342000002002F05DFB002002F05AFB002002F0B9
:1034300057FB002002F054FB002002F051FB00205B
:1034400002F04EFB002002F04BFB002002F048FB94
:10345000002002F045FBF02002F04EFB002002F0BD
:103460003FFB502002F03CFB002002F039FB002023
:1034700002F036FB002002F033FBF32002F03CFBAD
:10348000002002F02DFBF92002F036FB062002F0AE
:1034900027FB102002F024FB292002F021FB002052
:1034A00002F01EFB3A2002F027FB552002F018FB29
:1034B000112002F021FB642002F060FF292002F0BD
:1034C0001BFB352002F018FB002002F009FB512005
:1034D00002F012FBFF2002F003FB532002F00CFB72
:1034E0002C2002F0FDFA552002F006FB822002F0AB
:1034F000F7FA2C2002F000FB02F028B8FE48808882
:1035000045F2105188427DD155214FF4704002F0B0
:1035100009FBAA214FF2010002F004FB52214FF2F5
:10352000020002F0FFFA08214FF2030002F0FAFA5B
:1035300001214FF2040002F0F5FA0D214FF4304062
:1035400002F0F0FA0D214BF2010002F0EBFA0D212E
:103550004BF2020002F0E6FA34214FF4364002F05A
:10356000E1FA34214BF2016002F0DCFA34214BF233
:10357000026002F0D7FA0D214FF4314002F0D2FA86
:103580000D214BF2011002F0CDFA0D214BF2021089
:1035900002F0C8FA34214FF4374002F0C3FA342164
:1035A0004BF2017002F0BEFA34214BF2027002F0CD
:1035B000B9FA00214FF4324002F0B4FA00214BF284
:1035C000012002F0AFFA00214BF2022002F0AAFA29
:1035D00024214FF4384002F0A5FA24214BF60100D3
:1035E00002F0A0FA24214BF6020002F09BFA01211E
:1035F0004FF43F4002F096FA0F214FF4334002F0AF
:1036000091FA00E0FDE30F214BF2013002F08AFA5B
:103610000F214BF2023002F085FA34214FF4394089
:1036200002F080FA34214BF6011002F07BFA3421CB
:103630004BF6021002F076FA08214FF4354002F002
:1036400071FA08214BF2015002F06CFA08214BF29A
:10365000025002F067FA03214FF4424002F062FA8E
:1036600024214FF43A4002F05DFA24214BF6012068
:1036700002F058FA24214BF6022002F053FA0021FE
:103680004FF43C4002F04EFA78214BF6014002F034
:1036900049FA00214BF6024002F044FA00214FF4AF
:1036A0003D4002F03FFA78214BF6015002F03AFA21
:1036B00000214BF6025002F035FA00214FF43E4053
:1036C00002F030FA64214BF6016002F02BFA00217F
:1036D0004FF4514002F026FA33214DF2011002F06E
:1036E00021FA00214DF2021002F01CFA34214DF2B1
:1036F000031002F017FA00214DF2041002F012FA42
:103700003A214DF2051002F00DFA00214DF206109B
:1037100002F008FA4A214DF2071002F003FA0021E4
:103720004DF2081002F0FEF95C214DF2091002F092
:10373000F9F900214DF20A1002F0F4F981214DF25D
:103740000B1002F0EFF900214DF20C1002F0EAF933
:10375000A6214DF20D1002F0E5F900214DF20E10F8
:1037600002F0E0F9E5214DF20F1002F0DBF9012142
:103770004DF2101002F0D6F913214DF2111002F0A3
:10378000D1F901214DF2121002F0CCF954214DF281
:10379000131002F0C7F901214DF2141002F0C2F922
:1037A00082214DF2151002F0BDF901214DF21610E3
:1037B00002F0B8F9CA214DF2171002F0B3F9022154
:1037C0004DF2181002F0AEF900214DF2191002F07E
:1037D000A9F902214DF21A1002F0A4F901214DF2CB
:1037E0001B1002F09FF902214DF21C1002F09AF911
:1037F00034214DF21D1002F095F902214DF21E10F8
:1038000002F090F967214DF21F1002F08BF90221AE
:103810004DF2201002F086F984214DF2211002F0C1
:1038200081F902214DF2221002F07CF9A4214DF21F
:10383000231002F077F902214DF2241002F072F900
:10384000B7214DF2251002F06DF902214DF226103C
:1038500002F068F9CF214DF2271002F063F902213E
:103860004DF2281002F05EF9DE214DF2291002F02F
:1038700059F902214DF22A1002F054F9F2214DF2C9
:103880002B1002F04FF902214DF22C1002F04AF9F0
:10389000FE214DF22D1002F045F903214DF22E10BC
:1038A00002F040F910214DF22F1002F03BF90321F4
:1038B0004DF2301002F036F933214DF2311002F0A2
:1038C00031F903214DF2321002F02CF96D214DF245
:1038D000331002F027F900214FF4524002F022F990
:1038E00033214DF2012002F01DF900214DF202209A
:1038F00002F018F9342101E0340200204DF20320D7
:1039000002F010F900214DF2042002F00BF93A21E7
:103910004DF2052002F006F900214DF2062002F0DA
:1039200001F94A214DF2072002F0FCF800214DF286
:10393000082002F0F7F85C214DF2092002F0F2F8BD
:1039400000214DF20A2002F0EDF881214DF20B200A
:1039500002F0E8F800214DF20C2002F0E3F8A62175
:103960004DF20D2002F0DEF800214DF20E2002F0A3
:10397000D9F8E5214DF20F2002F0D4F801214DF2E3
:10398000102002F0CFF813214DF2112002F0CAF8F6
:1039900001214DF2122002F0C5F854214DF21320FE
:1039A00002F0C0F801214DF2142002F0BBF8822190
:1039B0004DF2152002F0B6F801214DF2162002F06A
:1039C000B1F8CA214DF2172002F0ACF802214DF2F5
:1039D000182002F0A7F800214DF2192002F0A2F8F9
:1039E00002214DF21A2002F09DF801214DF21B2018
:1039F00002F098F802214DF21C2002F093F83421D5
:103A00004DF21D2002F08EF802214DF21E2002F030
:103A100089F867214DF21F2002F084F802214DF24F
:103A2000202002F07FF884214DF2212002F07AF864
:103A300002214DF2222002F075F8A4214DF223203C
:103A400002F070F802214DF2242002F06BF8B72149
:103A50004DF2252002F066F802214DF2262002F0F8
:103A600061F8CF214DF2272002F05CF802214DF2DF
:103A7000282002F057F8DE214DF2292002F052F8FA
:103A800002214DF22A2002F04DF8F2214DF22B20B6
:103A900002F048F802214DF22C2002F043F8FE21FA
:103AA0004DF22D2002F03EF803214DF22E2002F0BF
:103AB00039F810214DF22F2002F034F803214DF295
:103AC000302002F02FF833214DF2312002F02AF895
:103AD00003214DF2322002F025F86D214DF2332002
:103AE00002F020F800214FF4534002F01BF833217C
:103AF0004DF2013002F016F800214DF2023002F0D2
:103B000011F834214DF2033002F00CF800214DF28F
:103B1000043002F007F83A214DF2053002F002F8C5
:103B200000214DF2063001F0FDFF4A214DF2073031
:103B300001F0F8FF00214DF2083001F0F3FF5C21A5
:103B40004DF2093001F0EEFF00214DF20A3001F094
:103B5000E9FF81214DF20B3001F0E4FF00214DF22D
:103B60000C3001F0DFFFA6214DF20D3001F0DAFF3D
:103B700000214DF20E3001F0D5FFE5214DF20F305E
:103B800001F0D0FF01214DF2103001F0CBFF1321E5
:103B90004DF2113001F0C6FF01214DF2123001F05B
:103BA000C1FF54214DF2133001F0BCFF01214DF251
:103BB000143001F0B7FF82214DF2153001F0B2FF51
:103BC00001214DF2163001F0ADFFCA214DF2173040
:103BD00001F0A8FF02214DF2183001F0A3FF0021EF
:103BE0004DF2193001F09EFF02214DF21A3001F022
:103BF00099FF01214DF21B3001F094FF02214DF29B
:103C00001C3001F08FFF34214DF21D3001F08AFF8E
:103C100002214DF21E3001F085FF67214DF21F3069
:103C200001F080FF02214DF2203001F07BFF842162
:103C30004DF2213001F076FF02214DF2223001F0E9
:103C400071FFA4214DF2233001F06CFF02214DF2EF
:103C5000243001F067FFB7214DF2253001F062FFFB
:103C600002214DF2263001F05DFFCF214DF22730C9
:103C700001F058FF02214DF2283001F053FFDE2100
:103C80004DF2293001F04EFF02214DF22A3001F0B1
:103C900049FFF2214DF22B3001F044FF02214DF299
:103CA0002C3001F03FFFFE214DF22D3001F03AFFA4
:103CB00003214DF22E3001F035FF10214DF22F304F
:103CC00001F030FF03214DF2303001F02BFF3321A2
:103CD0004DF2313001F026FF03214DF2323001F078
:103CE00021FF6D214DF2333001F01CFF00214FF414
:103CF000544001F017FF33214DF2014001F012FF53
:103D000000214DF2024001F00DFF34214DF203403D
:103D100001F008FF00214DF2044001F003FF3A21B9
:103D20004DF2054001F0FEFE00214DF2064001F08B
:103D3000F9FE4A214DF2074001F0F4FE00214DF258
:103D4000084001F0EFFE5C214DF2094001F0EAFE6F
:103D500000214DF20A4001F0E5FE81214DF20B40B9
:103D600001F0E0FE00214DF20C4001F0DBFEA62147
:103D70004DF20D4001F0D6FE00214DF20E4001F053
:103D8000D1FEE5214DF20F4001F0CCFE01214DF2B4
:103D9000104001F0C7FE13214DF2114001F0C2FEA8
:103DA00001214DF2124001F0BDFE54214DF21340AD
:103DB00001F0B8FE01214DF2144001F0B3FE822162
:103DC0004DF2154001F0AEFE01214DF2164001F01A
:103DD000A9FECA214DF2174001F0A4FE02214DF2C6
:103DE000184001F09FFE00214DF2194001F09AFEAB
:103DF00002214DF21A4001F095FE01214DF21B40C7
:103E000000E006E301F08EFE02214DF21C4001F0BD
:103E100089FE34214DF21D4001F084FE02214DF255
:103E20001E4001F07FFE67214DF21F4001F07AFE37
:103E300002214DF2204001F075FE84214DF2214017
:103E400001F070FE02214DF2224001F06BFEA42130
:103E50004DF2234001F066FE02214DF2244001F0B4
:103E600061FEB7214DF2254001F05CFE02214DF2CA
:103E7000264001F057FECF214DF2274001F052FEBF
:103E800002214DF2284001F04DFEDE214DF2294085
:103E900001F048FE02214DF22A4001F043FEF221DA
:103EA0004DF22B4001F03EFE02214DF22C4001F07C
:103EB00039FEFE214DF22D4001F034FE03214DF27A
:103EC0002E4001F02FFE10214DF22F4001F02AFE6E
:103ED00003214DF2304001F025FE33214DF23140F7
:103EE00001F020FE03214DF2324001F01BFE6D2156
:103EF0004DF2334001F016FE00214FF4554001F021
:103F000011FE33214DF2015001F00CFE00214DF263
:103F1000025001F007FE34214DF2035001F002FE81
:103F200000214DF2045001F0FDFD3A214DF2055003
:103F300001F0F8FD00214DF2065001F0F3FD4A2199
:103F40004DF2075001F0EEFD00214DF2085001F056
:103F5000E9FD5C214DF2095001F0E4FD00214DF234
:103F60000A5001F0DFFD81214DF20B5001F0DAFD26
:103F700000214DF20C5001F0D5FDA6214DF20D505F
:103F800001F0D0FD00214DF20E5001F0CBFDE521F6
:103F90004DF20F5001F0C6FD01214DF2105001F01D
:103FA000C1FD13214DF2115001F0BCFD01214DF274
:103FB000125001F0B7FD54214DF2135001F0B2FD43
:103FC00001214DF2145001F0ADFD82214DF215504A
:103FD00001F0A8FD01214DF2165001F0A3FDCA2108
:103FE0004DF2175001F09EFD02214DF2185001F0E4
:103FF00099FD00214DF2195001F094FD02214DF27E
:104000001A5001F08FFD01214DF21B5001F08AFD85
:1040100002214DF21C5001F085FD34214DF21D505E
:1040200001F080FD02214DF21E5001F07BFD672161
:104030004DF21F5001F076FD02214DF2205001F0AB
:1040400071FD84214DF2215001F06CFD02214DF2F1
:10405000225001F067FDA4214DF2235001F062FDD2
:1040600002214DF2245001F05DFDB7214DF22550A3
:1040700001F058FD02214DF2265001F053FDCF21F1
:104080004DF2275001F04EFD02214DF2285001F073
:1040900049FDDE214DF2295001F044FD02214DF28F
:1040A0002A5001F03FFDF2214DF22B5001F03AFD74
:1040B00002214DF22C5001F035FDFE214DF22D5024
:1040C00001F030FD03214DF22E5001F02BFD1021A7
:1040D0004DF22F5001F026FD03214DF2305001F03A
:1040E00021FD33214DF2315001F01CFD03214DF231
:1040F000325001F017FD6D214DF2335001F012FDE9
:1041000000214FF4564001F00DFD33214DF20160C6
:1041100001F008FD00214DF2026001F003FD3421A1
:104120004DF2036001F0FEFC00214DF2046001F04D
:10413000F9FC3A214DF2056001F0F4FC00214DF24A
:10414000066001F0EFFC4A214DF2076001F0EAFC45
:1041500000214DF2086001F0E5FC5C214DF20960A0
:1041600001F0E0FC00214DF20A6001F0DBFC81214E
:104170004DF20B6001F0D6FC00214DF20C6001F015
:10418000D1FCA6214DF20D6001F0CCFC00214DF2D6
:104190000E6001F0C7FCE5214DF20F6001F0C2FC9A
:1041A00001214DF2106001F0BDFC13214DF21160B0
:1041B00001F0B8FC01214DF2126001F0B3FC542172
:1041C0004DF2136001F0AEFC01214DF2146001F0DC
:1041D000A9FC82214DF2156001F0A4FC01214DF2F1
:1041E000166001F09FFCCA214DF2176001F09AFCA5
:1041F00002214DF2186001F095FC00214DF219608A
:1042000001F090FC02214DF21A6001F08BFC0121BB
:104210004DF21B6001F086FC02214DF21C6001F0A2
:1042200081FC34214DF21D6001F07CFC02214DF235
:104230001E6001F077FC67214DF21F6001F072FCF7
:1042400002214DF2206001F06DFC84214DF22160CD
:1042500001F068FC02214DF2226001F063FCA42110
:104260004DF2236001F05EFC02214DF2246001F06A
:1042700059FCB7214DF2256001F054FC02214DF2AA
:10428000266001F04FFCCF214DF2276001F04AFC7F
:1042900002214DF2286001F045FCDE214DF229603B
:1042A00001F040FC02214DF22A6001F03BFCF221BA
:1042B0004DF22B6001F036FC02214DF22C6001F032
:1042C00031FCFE214DF22D6001F02CFC03214DF25A
:1042D0002E6001F027FC10214DF22F6001F022FC2E
:1042E00003214DF2306001F01DFC33214DF23160AD
:1042F00001F018FC03214DF2326001F013FC6D2136
:104300004DF2336001F00EFC55214FF4704001F086
:1043100009FCAA214FF2010001F004FC52214FF2E6
:10432000020001F0FFFB08214FF2030001F0FAFB4D
:1043300000214FF2040001F0F5FBCC214FF4314095
:1043400001F0F0FB00214BF2011001F0EBFB052125
:104350004FF4364001F0E6FB70214FF4374001F096
:10436000E1FB70214BF2017001F0DCFB01214FF405
:10437000384001F0D7FB03214BF6010001F0D2FBDE
:1043800003214BF6020001F0CDFB03214BF60300A5
:1043900001F0C8FB02214FF43C4001F0C3FB0021B7
:1043A0004BF6014001F0BEFB00214BF6024001F04C
:1043B000B9FBD0214FF4494001F0B4FB02214CF687
:1043C000011001F0AFFB50214CF6021001F0AAFBE6
:1043D00050214CF6031001F0A5FB50214CF60410BF
:1043E00001F0A0FB00214FF4545001F09BFB55213C
:1043F0004FF4685001F096FB4FF4885001F07CFBBD
:10440000782001F0C5FF4FF4245001F075FB01F056
:104410009DB8FE48808849F2253188427ED147F612
:10442000F001E52001F07EFB4FF48071012001F0E6
:1044300079FB4FF4E061022001F074FB41F230019E
:10444000032001F06FFB0021042001F06BFB40F220
:104450000221082001F066FB0021092001F062FB27
:1044600000210A2001F05EFB00210C2001F05AFB24
:1044700000210D2001F056FB00210F2001F052FB1E
:104480000021102001F04EFB0721112001F04AFB12
:104490000021122001F046FB0021132001F042FB15
:1044A0000021072001F03EFB41F29061102001F055
:1044B00039FB40F22721112001F034FB9D2112200D
:1044C00001F030FB4FF4C851132001F02BFB2521E4
:1044D000292001F027FB0D212B2001F023FB0721D0
:1044E000302001F01FFB40F20331312001F01AFBB4
:1044F0000321322001F016FB40F20621352001F0A5
:1045000011FB0821362001F00DFB40F20641372057
:1045100001F008FB4FF44171382000E057E001F052
:1045200001FB0721392001F0FDFA40F202613C2035
:1045300001F0F8FA08213D2001F0F4FA00215020A2
:1045400001F0F0FAEF21512001F0ECFA00215220A5
:1045500001F0E8FA40F23F11532001F0E3FA4FF482
:104560002741602001F0DEFA0121612001F0DAFA32
:1045700000216A2001F0D6FA0021802001F0D2FA51
:104580000021812001F0CEFA0021822001F0CAFA38
:104590000021832001F0C6FA0021842001F0C2FA34
:1045A0000021852001F0BEFA1021902001F0BAFA16
:1045B0004FF4C061922001F0B5FA40F233110720A8
:1045C00001F0B0FA2221002001F0ACFA1FE78F4879
:1045D000808849F2283188427ED141F28F01EC2057
:1045E00001F0A0FA41F23421EF2001F09BFA4FF4E0
:1045F0008071012001F096FA4FF4E061022001F091
:1046000091FA41F23001032001F08CFA00210420DC
:1046100001F088FA40F20221082001F083FA00211B
:10462000092001F07FFA00210A2001F07BFA012124
:104630000C2001F077FA00210D2001F073FA00211F
:104640000F2001F06FFA0021102001F06BFA072112
:10465000112001F067FA0021122001F063FA002115
:10466000132001F05FFA0121072001F05BFA3220EC
:1046700001F084FE41F29041102001F053FA40F223
:104680002721112001F04EFA322001F077FE8A2115
:10469000122001F047FA322001F070FE4FF4D051A1
:1046A000132001F03FFA0621292001F03BFA0D21E9
:1046B0002B2001F037FA322001F060FE002120208B
:1046C00001F030FA0021212001F02CFA322001F013
:1046D00055FE0021302000E074E001F023FA40F2A2
:1046E0000461312001F01EFA40F20531322001F060
:1046F00019FA0021352001F015FA40F6094136205B
:1047000001F010FA4FF40171372001F00BFA40F27A
:104710000131382001F006FA40F20771392001F02A
:1047200001FA00213C2001F0FDF940F60A213D206C
:1047300001F0F8F9322001F021FE0021502001F0B3
:10474000F1F9EF21512001F0EDF90021522001F0A3
:10475000E9F940F23F11532001F0E4F94FF4274109
:10476000602001F0DFF90121612001F0DBF9002177
:104770006A2001F0D7F90021802001F0D3F900214F
:10478000812001F0CFF90021822001F0CBF9002136
:10479000832001F0C7F90021842001F0C3F9002132
:1047A000852001F0BFF91021902001F0BBF94FF4F2
:1047B000C061922001F0B6F940F23311072001F0F8
:1047C000B1F924E61148808849F2203188427DD130
:1047D0000021084601F0A6F94FF48071012001F094
:1047E000A1F94FF4E061022001F09CF941F230019F
:1047F000032001F097F90021042001F093F940F221
:104800000221082001F08EF9002101E0340200208D
:10481000092001F087F900210A2001F083F9012124
:104820000C2001F07FF900210D2001F07BF900211F
:104830000F2001F077F9322001F0A0FD40F20111C4
:10484000072001F06FF9322001F098FD4FF48651F6
:10485000102001F067F90721112001F063F94FF4EE
:104860008871122001F05EF94FF43061132001F0DD
:1048700059F90021292001F055F944F210012B20AB
:1048800001F050F90021502001F04CF9EF215120A6
:1048900001F048F90021522001F044F940F23F11A3
:1048A000532001F03FF94FF41C51602001F03AF918
:1048B0000121612001F036F900216A2001F032F96E
:1048C0000021802001F02EF9002100E031E081205C
:1048D00001F028F90021822001F024F90021832031
:1048E00001F020F90021842001F01CF9002185202D
:1048F00001F018F91021902001F014F90021922004
:1049000001F010F90121932001F00CF94FF48871A6
:10491000952001F007F90021972001F003F900210B
:10492000982001F0FFF840F27311072001F0FAF827
:104930006DE5FE48808849F2313188427DD141F2EF
:104940001401E72001F0EEF84FF48071012001F02E
:10495000E9F84FF40071022001F0E4F841F2380167
:10496000032001F0DFF840F20221082001F0DAF81C
:104970000021092001F0D6F800210A2001F0D2F828
:1049800000210C2001F0CEF800210D2001F0CAF822
:1049900000210F2001F0C6F80021102001F0C2F81C
:1049A0000721112001F0BEF80021122001F0BAF811
:1049B0000021132001F0B6F8C82001F0DFFC41F21D
:1049C0009061102001F0AEF840F22721112001F093
:1049D000A9F8322001F0D2FC0C21122001F0A2F83B
:1049E000322001F0CBFC4FF40061132001F09AF863
:1049F0001121292001F096F80B212B2001F092F8CB
:104A0000322001F0BBFC0021202001F08BF840F2A5
:104A10003F11212001F086F80021302001F082F8BA
:104A20004FF48371312001F07DF80021322001F034
:104A300079F84FF40171352000E064E001F072F87C
:104A400041F20A61362001F06DF840F2077137201B
:104A500001F068F84FF48371382001F063F840F2F8
:104A60000771392001F05EF840F202413C2001F06C
:104A700059F840F60F413D2001F054F80021502034
:104A800001F050F8EF21512001F04CF800215220A4
:104A900001F048F840F23F11532001F043F84FF481
:104AA0001C51602001F03EF80121612001F03AF82C
:104AB00000216A2001F036F80021802001F032F850
:104AC0000021812001F02EF80021822001F02AF837
:104AD0000021832001F026F80021842001F022F833
:104AE0000021852001F01EF81021902001F01AF815
:104AF0004FF4C061922001F015F840F23311072005
:104B000001F010F883E48948808845F20841884222
:104B10007ED14FF48071012001F004F84FF4E06180
:104B2000022000F0FFFF41F23001032000F0FAFF05
:104B30000021042000F0F6FF40F20721082000F0D9
:104B4000F1FF0021092000F0EDFF00210A2000F014
:104B5000E9FF00210C2000F0E5FF00210D2000F00E
:104B6000E1FF00210F2000F0DDFF142001F006FC22
:104B700041F2B061102000F0D5FF0121112000F0BA
:104B8000D1FF0121172000F0CDFF4FF49C711220BE
:104B900000F0C8FF4FF40061132000F0C3FF0921AB
:104BA000292000F0BFFF09212A2000F0BBFF0021CF
:104BB000A42000F0B7FF0021502000F0B3FFEF2148
:104BC000512000F0AFFF0021522000F0ABFF40F277
:104BD0003F11532000F0A6FF4FF41C51602000F05D
:104BE000A1FF0121612000F09DFF00216A2000F05B
:104BF00099FF0021802000F095FF0021812000F026
:104C000091FF0021822000F08DFF0021832000E031
:104C100023E000F087FF0021842000F083FF0021C3
:104C2000852000F07FFF1321902000F07BFF002102
:104C3000922000F077FF0321932000F073FF4FF4E0
:104C40008871952000F06EFF40F27311072000F08C
:104C500069FF322001F092FBB8E43448808841F2C9
:104C6000055188427ED10021072000F05BFF3220F1
:104C700001F084FB4FF48E71122000F053FF0121EC
:104C8000A42000F04FFF0F21082000F04BFF082167
:104C90000A2000F047FF08210D2000F043FF40F2FA
:104CA0000771302000F03EFF0721312000F03AFF6D
:104CB00040F20361322000F035FF4FF4E061332011
:104CC00000F030FF40F20221342000F02BFF0221DF
:104CD000352000F027FF41F60F71362000F022FF4B
:104CE00040F20771372000F01DFF0021382000F04E
:104CF00019FF0021392000F015FF40F207713A201A
:104D000000F010FF00213B2000F00CFF07213C20A9
:104D100000F008FF00213D2000F004FF322001F0E8
:104D20002DFB0121072000F0FDFE01E034020020F0
:104D30000121172000F0F6FE322001F01FFB4FF496
:104D4000BD51102000F0EEFE40F21721112000F0BE
:104D5000E9FE4FF48F71122000F0E4FE4FF4706111
:104D6000132000E097E000F0DDFE00212A2000F093
:104D7000D9FE0A21292000F0D5FE4FF49F711220A0
:104D800000F0D0FE0021502000F0CCFEEF21512099
:104D900000F0C8FE0021522000F0C4FE40F23F1196
:104DA000532000F0BFFE4FF41C51602000F0BAFE0B
:104DB0000121612000F0B6FE00216A2000F0B2FE61
:104DC0000021802000F0AEFE0021812000F0AAFE2C
:104DD0000021822000F0A6FE0021832000F0A2FE28
:104DE0000021842000F09EFE0021852000F09AFE24
:104DF0001321902000F096FE4FF44071922000F0B5
:104E000091FE0521932000F08DFE0021952000F0F9
:104E100089FE0021972000F085FE0021982000F0F7
:104E200081FE4FF48071012000F07CFE4FF4E061C0
:104E3000022000F077FE41F23801032000F072FEFC
:104E40000021042000F06EFE00210C2000F06AFE1C
:104E500000210F2000F066FE0021202000F062FEFD
:104E60000021212000F05EFE2121072000F05AFEE3
:104E7000142001F083FA6121072000F053FE142072
:104E800001F07CFA40F27311072000F04BFE142071
:104E900001F074FA5AE3FE4880884BF205518842CB
:104EA0007ED10021084600F03DFE0021084600F0BA
:104EB00039FE0021084600F035FE0021084600F0CA
:104EC00031FE0121A42000F02DFE142001F056FA3D
:104ED0004FF41C51602000F025FE40F20221082012
:104EE00000F020FE4FF40571302000F01BFE43F26D
:104EF0001571312000F016FE40F20461322000F0FE
:104F000011FE40F61661332000F00CFE42F2112132
:104F1000342000F007FE4FF4A851352000F002FEC7
:104F200048F20751362000F0FDFD41F207413720DD
:104F300000F0F8FD41F20341382000F0F3FD20219C
:104F4000392000F0EFFD1A21902000F0EBFD002148
:104F5000102000F0E7FD0721112000F0E3FD002103
:104F6000122000F0DFFD0021132000F0DBFD1420F3
:104F700001F004FA4FF4E661102000F0D3FD40F296
:104F80003711112000F0CEFD142001F0F7F94FF495
:104F9000DC71122000F0C6FD142001F0EFF900E0F2
:104FA00083E04FF47061132000F0BCFD80212A20C3
:104FB00000F0B8FD4821292000F0B4FD142001F0D4
:104FC000DDF94FF48071012000F0ACFD4FF4E06199
:104FD000022000F0A7FD41F23801032000F0A2FDFD
:104FE00040F20221082000F09DFD00210A2000F07F
:104FF00099FD00210C2000F095FD00210D2000F00E
:1050000091FD30210E2000F08DFD0021502000F098
:1050100089FDEF21512000F085FD0021522000F094
:1050200081FD40F23F11532000F07CFD4FF41C51F4
:10503000602000F077FD0121612000F073FD002168
:105040006A2000F06FFD1121902000F06BFD4FF4FD
:10505000C061922000F066FD40F20241932000F012
:1050600061FD0221942000F05DFD142001F086F91D
:105070000121072000F056FD142001F07FF9612185
:10508000072000F04FFD40F27311072000F04AFDA9
:105090000021202000F046FD0021212000F042FDEB
:1050A0002221002000F03EFD50E2794880884CF239
:1050B000055188427ED10021084600F033FD0021D1
:1050C000084600F02FFD142001F058F90021084691
:1050D00000F028FD0021084600F024FD00210846CC
:1050E00000F020FD0021084600F01CFD0121A42055
:1050F00000F018FD142001F041F94FF41C5160201C
:1051000000F010FD40F60601082000F00BFD40F213
:105110000371302000F006FD0121312000F002FD76
:105120000421322000F0FEFC4FF48171332000F0A6
:10513000F9FC4FF44071342000F0F4FC40F203110C
:10514000352000F0EFFC1F21362000F0EBFC40F290
:105150000371372000F0E6FC0121382000F0E2FC6A
:105160000421392000F0DEFC1521902000F0DAFC4B
:105170004FF48261102000F0D5FC40F2472111204D
:1051800000F0D0FC4FF4DE71122000F0CBFC4FF4A5
:105190006061132000F0C6FC782001F0EFF84FF4B6
:1051A0008071012000F0BEFC4FF40071022000F07D
:1051B000B9FC00E050E041F23001032000F0B2FC05
:1051C00008210A2000F0AEFC00210C2000F0AAFC0F
:1051D00020210E2000F0A6FC00210F2000F0A2FCF0
:1051E0000021202000F09EFC0021212000F09AFCEC
:1051F0003D212A2000F096FC142001F0BFF82D215B
:10520000292000F08FFC0021502000F08BFC4DF293
:10521000EF01512000F086FC0021522000F082FCBA
:1052200040F23F11532000F07DFC0021612000F08E
:1052300079FC00216A2000F075FC4FF44071922047
:1052400000F070FC0521932000F06CFC4FF480719D
:10525000072000F067FC79E10D48808844F2315165
:1052600088427CD10121002000F05CFC0A2001F082
:1052700085F841F22861102000F054FC0E21122024
:1052800000F050FC40F63921132000F04BFC01E007
:10529000340200200A2001F071F84021112000F0B2
:1052A00041FC5021152000F03DFC0A2001F066F879
:1052B0001E21122000F036FC0A2001F05FF84FF4A6
:1052C000B151102000F02EFC42F63921132000F0DD
:1052D00029FC0A2001F052F84FF48071012000F0FF
:1052E00021FC4FF44071022000F01CFC41F2380117
:1052F000032000F017FC40F20221082000F012FC0D
:1053000008210A2000F00EFC0021302000F00AFCE9
:1053100040F20241312000F005FC4FF4837132204D
:1053200000F000FC40F20351332000F0FBFB4FF48F
:105330008271342000F0F6FB40F20131352000F09C
:10534000F1FB40F20771362000F0ECFB40F2053132
:10535000372000F0E7FB4FF40271382000E040E016
:1053600000F0E0FB40F60B71392000F0DBFB02217E
:10537000412000F0D7FB4FF41C51602000F0D2FB1D
:105380000121612000F0CEFB4FF40471902000F069
:10539000C9FB4FF48571922000F0C4FB04219320D7
:1053A00000F0C0FB4FF48071A02000F0BBFB012196
:1053B000072000F0B7FB2121072000F0B3FB2321D9
:1053C000072000F0AFFB3321072000F0ABFB40F2D9
:1053D0003311072000F0A6FB0021A02000F0A2FB63
:1053E000B4E06048808844F235518842F8D13021D9
:1053F000152000F097FB10219A2000F093FB20214C
:10540000112000F08FFB43F22841102000F08AFBAE
:105410000221122000F086FB41F23801132000F037
:1054200081FB282000F0AAFF1221084600F07AFB39
:10543000282000F0A3FF43F22041102000F072FB6F
:1054400043F23801132000F06DFB462000F096FF78
:105450000021302000F066FB40F20241312000F0D4
:1054600061FB40F20731322000F05CFB4FF44171E8
:10547000332000F057FB0421342000F053FB40F2AE
:105480000141352000F04EFB40F20771362000F05C
:1054900049FB40F20531372000F044FB4FF4C26174
:1054A000382000F03FFB4FF4C261392000F03AFB96
:1054B0004FF48071012000F035FB4FF44071022061
:1054C00000F030FB41F23001032000F02BFB40F6EE
:1054D0000801082000F026FB08210A2000F022FB2A
:1054E0004FF41C51602000F01DFB0121612000F0F1
:1054F00019FB4FF49F71902000F014FB4FF4807162
:10550000922000F00FFB4FF48071932000F00AFB13
:105510004FF44051A02000F005FB1021A32000F023
:1055200001FB0121072000F0FDFA2121072000F0F6
:10553000F9FA2321072000F0F5FA3321072000F0C3
:10554000F1FA40F23311072000F0ECFA0020FCF7EA
:105550001BFB0120044908604FF6FF70FCF7DEFAE0
:105560000EBD000034020020BC82404208B5034852
:1055700000880090BDF8000008BD00008000006CAD
:1055800001B5BDF8000000F0B7FA052000F000FFFB
:10559000FFF7ECFF08BD0000F0B50546002400272A
:1055A000A748807901281ED1A548808846F60401C5
:1055B000884218D0082D15D2DFE805F00406080A45
:1055C0000C0E101206250DE007250BE0042509E05E
:1055D000052507E0012505E0002503E0032501E09E
:1055E000022500BF00BF9648808849F241318842B9
:1055F00011D09348808846F6040188420BD0904829
:10560000808845F21031884205D08D48808845F267
:10561000105188427ED1082D1CD2DFE805F0040627
:10562000090C0F12151800BF14E044F0800411E0BB
:1056300044F040040EE044F0C0040BE044F02004C9
:1056400008E044F0600405E044F0A00402E044F007
:10565000E00400BF00BF7A48808845F210518842BC
:1056600002D14FF4585700E036277548808845F23C
:105670001031884207D07248808845F21051884224
:1056800001D044F008046E48808846F60401884240
:1056900001D144F002042146384600F043FA04F0F8
:1056A000200068B16648008865494988884214DA54
:1056B00063480688408862490880084646800CE0B6
:1056C0005F4800885E494988884206DD5C48068854
:1056D00040885B490880084646805948808845F2E2
:1056E0001051884254D15649488900F005FA0020EB
:1056F00000F0F6F952494989491C88B200F0FCF9DA
:10570000002000F0EDF94E494989891C88B200F06B
:10571000F3F900E06BE04A490988491EC1F30F2004
:1057200000F0DEF946494989C91C88B200F0E4F965
:1057300043490978491EC8B200F0D2F94049888926
:1057400000F0DAF9002000F0CBF93D498989491CC5
:1057500088B200F0D1F9002000F0C2F938498989F7
:10576000891C88B200F0C8F935494988491EC1F33F
:105770000F2000F0B5F932498989C91C88B200F0C0
:10578000BBF92F498978491EC8B200F0A9F955E044
:105790002B49488900F0B0F9002000F0A1F9002061
:1057A00000F09EF926490988491EC1F30F2000F038
:1057B00097F923490978491EC8B200F091F92049A8
:1057C000888900F099F9002000F08AF9002000F0A3
:1057D00087F91B494988491EC1F30F2000F080F961
:1057E00017498978491EC8B200F07AF926E0082DD9
:1057F0001CD2DFE805F004070A0D0F12151844F05B
:10580000300413E044F0100410E044F020040DE0F4
:1058100000BF0BE044F0380408E044F0280405E041
:1058200044F0180402E044F0080400BF00BF03275E
:1058300044F480542146384600F074F9F0BD00006D
:105840003402002030B504460D464048808849F2B5
:105850004131884205D03D48808845F21031884268
:1058600014D13A49488900F047F9201200F038F97C
:10587000E0B200F035F93549888900F03DF9281289
:1058800000F02EF9E8B200F02BF95DE02F48808897
:1058900046F6040188421DD12C488079012804D1A4
:1058A0002A480088401E001B84B22849488900F01D
:1058B00023F9201200F014F9E0B200F011F92349A5
:1058C000888900F019F9281200F00AF9E8B200F00E
:1058D00007F939E01D48808845F21051884220D1EF
:1058E0001A49488900F008F9201200F0F9F8174920
:1058F0004989491C88B200F0FFF8E0B200F0F0F8E6
:105900001249888900F0F8F8281200F0E9F80F49E8
:105910008989491C88B200F0EFF8E8B200F0E0F89D
:1059200012E00A488079012804D108480088401E06
:10593000001B84B205494889214600F0F3F8034969
:105940008889294600F0EEF830BD000034020020BE
:105950002DE9F84F80460E4617461C46B3462046B2
:10596000E31704EB5373DB1021464FEAE47C04EBAE
:105970005C7C4FEAEC0CA4EBCC0CBCF1000F02D029
:105980004FF0010C01E04FF0000C6344224604EBA1
:10599000D27C4FEA6C0C03FB0CF3DBB20093A7F153
:1059A0002000C7B2002556E00C2C07D107EB4700BA
:1059B0002B4901EB800010F8059013E0102C05D165
:1059C000284800EB071010F805900BE0182C07D1C1
:1059D00007EBC700244901EB800010F8059001E0B7
:1059E000BDE8F88F4FF0000A2FE009F0800030B1D9
:1059F0001E48028831464046FCF77EF907E00A98C7
:105A000028B91B48028831464046FCF775F94FEA31
:105A100049604FEA1069701C86B216484088B0424F
:105A200000DCDDE7A6EB0B00A0420AD15E4608F1E0
:105A300001001FFA80F80F480088404500DCCFE7DE
:105A400006E00AF1010000F0FF0ABAF1080FCCDB12
:105A500000BF681CC5B200988542A5DB00BFBFE748
:105A6000AA7900081E7E00080E8400083A00002073
:105A70003C000020340200202DE9F84704460D4682
:105A800090469946DDE9096704F0FF0A08EB040037
:105A90001FFA80F809EB05001FFA80F916E044456B
:105AA00002DB5446A81985B24D4500DB14E0002006
:105AB00000903A78334629462046FFF749FF3046A2
:105AC00006EBD07104EB61018CB27F1C38787E2824
:105AD00002DC38782028E2DA00BFBDE8F887000051
